:020000040000FA
:020000000D28C9
:040002000034003492
:08000800A000030EA100210E6F
:100010008300A00E200E0900080083160230850020
:100020009F010430810000308B00873099008312DB
:100030009F014430990085018316A23099008312F4
:10004000191B35288316A73099008312191B3728EE
:100050008316883099008312191B3A2883168E3034
:1000600099008312191B3E28432885011C2885010D
:1000700005141C288501051405151C288501051487
:10008000051505161C288501051405150516851688
:040090001C281C28E4
:02400E00A43FCD
:00000001FF
