:020000040000FA
:020000000D28C9
:040002000034003492
:08000800A000030EA100210E6F
:100010008300A00E200E0900080083160030850022
:100020009F010730810000308B00FF239000831276
:100030000730990085013E3081000B110514000046
:1000400000000000000000000B1D1F280510851691
:100050000B113E3081000000000000000000000095
:100060000B1D2B2885121430A2000B113E3081008D
:1000700000000B1D38280B15A20B35281B281A2849
:02400E00A43FCD
:00000001FF
