:020000040000FA
:020000002528B1
:040002000034003492
:08000800A000030EA100210E6F
:100010008300A00E200E09007F3983169B001C145C
:100020001A08831208007F3983169B0022089A0061
:100030001C158B1355309D00AA309D009C149C18F4
:100040001F288B17831208000800831600308500D4
:100050009F010430810000308B008312073099002B
:100060001D30A20008301320A20108300C203728D0
:02400E00A43FCD
:1042000089001E0039009F00C2000C00AB00330083
:104210006300D30095007B003800D6001E004800E4
:10422000DB00D8008600FD00A500FC000C00BE00ED
:1042300068009B00D9001000D800EC0090009100AD
:10424000AA00BB00CC00DD00EE00F100C900770041
:00000001FF
